{
  "contractName": "Token",
  "abi": [
    {
      "inputs": [
        {
          "internalType": "string",
          "name": "name",
          "type": "string"
        },
        {
          "internalType": "string",
          "name": "symbol",
          "type": "string"
        }
      ],
      "stateMutability": "nonpayable",
      "type": "constructor"
    },
    {
      "anonymous": false,
      "inputs": [
        {
          "indexed": true,
          "internalType": "address",
          "name": "owner",
          "type": "address"
        },
        {
          "indexed": true,
          "internalType": "address",
          "name": "approved",
          "type": "address"
        },
        {
          "indexed": true,
          "internalType": "uint256",
          "name": "tokenId",
          "type": "uint256"
        }
      ],
      "name": "Approval",
      "type": "event"
    },
    {
      "anonymous": false,
      "inputs": [
        {
          "indexed": true,
          "internalType": "address",
          "name": "owner",
          "type": "address"
        },
        {
          "indexed": true,
          "internalType": "address",
          "name": "operator",
          "type": "address"
        },
        {
          "indexed": false,
          "internalType": "bool",
          "name": "approved",
          "type": "bool"
        }
      ],
      "name": "ApprovalForAll",
      "type": "event"
    },
    {
      "anonymous": false,
      "inputs": [
        {
          "indexed": true,
          "internalType": "address",
          "name": "previousOwner",
          "type": "address"
        },
        {
          "indexed": true,
          "internalType": "address",
          "name": "newOwner",
          "type": "address"
        }
      ],
      "name": "OwnershipTransferred",
      "type": "event"
    },
    {
      "anonymous": false,
      "inputs": [
        {
          "indexed": true,
          "internalType": "address",
          "name": "from",
          "type": "address"
        },
        {
          "indexed": true,
          "internalType": "address",
          "name": "to",
          "type": "address"
        },
        {
          "indexed": true,
          "internalType": "uint256",
          "name": "tokenId",
          "type": "uint256"
        }
      ],
      "name": "Transfer",
      "type": "event"
    },
    {
      "inputs": [
        {
          "internalType": "address",
          "name": "to",
          "type": "address"
        },
        {
          "internalType": "uint256",
          "name": "tokenId",
          "type": "uint256"
        }
      ],
      "name": "approve",
      "outputs": [],
      "stateMutability": "nonpayable",
      "type": "function"
    },
    {
      "inputs": [
        {
          "internalType": "address",
          "name": "owner",
          "type": "address"
        }
      ],
      "name": "balanceOf",
      "outputs": [
        {
          "internalType": "uint256",
          "name": "",
          "type": "uint256"
        }
      ],
      "stateMutability": "view",
      "type": "function"
    },
    {
      "inputs": [
        {
          "internalType": "uint256",
          "name": "tokenId",
          "type": "uint256"
        }
      ],
      "name": "getApproved",
      "outputs": [
        {
          "internalType": "address",
          "name": "",
          "type": "address"
        }
      ],
      "stateMutability": "view",
      "type": "function"
    },
    {
      "inputs": [
        {
          "internalType": "address",
          "name": "owner",
          "type": "address"
        },
        {
          "internalType": "address",
          "name": "operator",
          "type": "address"
        }
      ],
      "name": "isApprovedForAll",
      "outputs": [
        {
          "internalType": "bool",
          "name": "",
          "type": "bool"
        }
      ],
      "stateMutability": "view",
      "type": "function"
    },
    {
      "inputs": [],
      "name": "name",
      "outputs": [
        {
          "internalType": "string",
          "name": "",
          "type": "string"
        }
      ],
      "stateMutability": "view",
      "type": "function"
    },
    {
      "inputs": [],
      "name": "owner",
      "outputs": [
        {
          "internalType": "address",
          "name": "",
          "type": "address"
        }
      ],
      "stateMutability": "view",
      "type": "function"
    },
    {
      "inputs": [
        {
          "internalType": "uint256",
          "name": "tokenId",
          "type": "uint256"
        }
      ],
      "name": "ownerOf",
      "outputs": [
        {
          "internalType": "address",
          "name": "",
          "type": "address"
        }
      ],
      "stateMutability": "view",
      "type": "function"
    },
    {
      "inputs": [],
      "name": "renounceOwnership",
      "outputs": [],
      "stateMutability": "nonpayable",
      "type": "function"
    },
    {
      "inputs": [
        {
          "internalType": "address",
          "name": "from",
          "type": "address"
        },
        {
          "internalType": "address",
          "name": "to",
          "type": "address"
        },
        {
          "internalType": "uint256",
          "name": "tokenId",
          "type": "uint256"
        }
      ],
      "name": "safeTransferFrom",
      "outputs": [],
      "stateMutability": "nonpayable",
      "type": "function"
    },
    {
      "inputs": [
        {
          "internalType": "address",
          "name": "from",
          "type": "address"
        },
        {
          "internalType": "address",
          "name": "to",
          "type": "address"
        },
        {
          "internalType": "uint256",
          "name": "tokenId",
          "type": "uint256"
        },
        {
          "internalType": "bytes",
          "name": "_data",
          "type": "bytes"
        }
      ],
      "name": "safeTransferFrom",
      "outputs": [],
      "stateMutability": "nonpayable",
      "type": "function"
    },
    {
      "inputs": [
        {
          "internalType": "address",
          "name": "operator",
          "type": "address"
        },
        {
          "internalType": "bool",
          "name": "approved",
          "type": "bool"
        }
      ],
      "name": "setApprovalForAll",
      "outputs": [],
      "stateMutability": "nonpayable",
      "type": "function"
    },
    {
      "inputs": [
        {
          "internalType": "bytes4",
          "name": "interfaceId",
          "type": "bytes4"
        }
      ],
      "name": "supportsInterface",
      "outputs": [
        {
          "internalType": "bool",
          "name": "",
          "type": "bool"
        }
      ],
      "stateMutability": "view",
      "type": "function"
    },
    {
      "inputs": [],
      "name": "symbol",
      "outputs": [
        {
          "internalType": "string",
          "name": "",
          "type": "string"
        }
      ],
      "stateMutability": "view",
      "type": "function"
    },
    {
      "inputs": [
        {
          "internalType": "uint256",
          "name": "tokenId",
          "type": "uint256"
        }
      ],
      "name": "tokenURI",
      "outputs": [
        {
          "internalType": "string",
          "name": "",
          "type": "string"
        }
      ],
      "stateMutability": "view",
      "type": "function"
    },
    {
      "inputs": [
        {
          "internalType": "address",
          "name": "from",
          "type": "address"
        },
        {
          "internalType": "address",
          "name": "to",
          "type": "address"
        },
        {
          "internalType": "uint256",
          "name": "tokenId",
          "type": "uint256"
        }
      ],
      "name": "transferFrom",
      "outputs": [],
      "stateMutability": "nonpayable",
      "type": "function"
    },
    {
      "inputs": [
        {
          "internalType": "address",
          "name": "newOwner",
          "type": "address"
        }
      ],
      "name": "transferOwnership",
      "outputs": [],
      "stateMutability": "nonpayable",
      "type": "function"
    },
    {
      "inputs": [
        {
          "internalType": "uint8",
          "name": "damage",
          "type": "uint8"
        },
        {
          "internalType": "uint8",
          "name": "magic",
          "type": "uint8"
        },
        {
          "internalType": "uint256",
          "name": "endurance",
          "type": "uint256"
        }
      ],
      "name": "mint",
      "outputs": [],
      "stateMutability": "nonpayable",
      "type": "function"
    },
    {
      "inputs": [
        {
          "internalType": "uint256",
          "name": "tokenId",
          "type": "uint256"
        }
      ],
      "name": "feed",
      "outputs": [],
      "stateMutability": "nonpayable",
      "type": "function"
    }
  ],
  "bytecode": "0x608060405260006007553480156200001657600080fd5b506040516200319f3803806200319f83398181016040528101906200003c91906200028a565b818181600090805190602001906200005692919062000168565b5080600190805190602001906200006f92919062000168565b50505062000092620000866200009a60201b60201c565b620000a260201b60201c565b50506200042e565b600033905090565b6000600660009054906101000a900473ffffffffffffffffffffffffffffffffffffffff16905081600660006101000a81548173ffffffffffffffffffffffffffffffffffffffff021916908373ffffffffffffffffffffffffffffffffffffffff1602179055508173ffffffffffffffffffffffffffffffffffffffff168173ffffffffffffffffffffffffffffffffffffffff167f8be0079c531659141344cd1fd0a4f28419497f9722a3daafe3b4186f6b6457e060405160405180910390a35050565b82805462000176906200039a565b90600052602060002090601f0160209004810192826200019a5760008555620001e6565b82601f10620001b557805160ff1916838001178555620001e6565b82800160010185558215620001e6579182015b82811115620001e5578251825591602001919060010190620001c8565b5b509050620001f59190620001f9565b5090565b5b8082111562000214576000816000905550600101620001fa565b5090565b60006200022f620002298462000331565b620002fd565b9050828152602081018484840111156200024857600080fd5b6200025584828562000364565b509392505050565b600082601f8301126200026f57600080fd5b81516200028184826020860162000218565b91505092915050565b600080604083850312156200029e57600080fd5b600083015167ffffffffffffffff811115620002b957600080fd5b620002c7858286016200025d565b925050602083015167ffffffffffffffff811115620002e557600080fd5b620002f3858286016200025d565b9150509250929050565b6000604051905081810181811067ffffffffffffffff82111715620003275762000326620003ff565b5b8060405250919050565b600067ffffffffffffffff8211156200034f576200034e620003ff565b5b601f19601f8301169050602081019050919050565b60005b838110156200038457808201518184015260208101905062000367565b8381111562000394576000848401525b50505050565b60006002820490506001821680620003b357607f821691505b60208210811415620003ca57620003c9620003d0565b5b50919050565b7f4e487b7100000000000000000000000000000000000000000000000000000000600052602260045260246000fd5b7f4e487b7100000000000000000000000000000000000000000000000000000000600052604160045260246000fd5b612d61806200043e6000396000f3fe608060405234801561001057600080fd5b50600436106101165760003560e01c80638da5cb5b116100a2578063c87b56dd11610071578063c87b56dd146102cb578063e985e9c5146102fb578063eb22ed321461032b578063f2fde38b14610347578063f59dfdfb1461036357610116565b80638da5cb5b1461025757806395d89b4114610275578063a22cb46514610293578063b88d4fde146102af57610116565b806323b872dd116100e957806323b872dd146101b557806342842e0e146101d15780636352211e146101ed57806370a082311461021d578063715018a61461024d57610116565b806301ffc9a71461011b57806306fdde031461014b578063081812fc14610169578063095ea7b314610199575b600080fd5b61013560048036038101906101309190611e78565b61037f565b60405161014291906126a5565b60405180910390f35b610153610461565b60405161016091906126c0565b60405180910390f35b610183600480360381019061017e9190611eca565b6104f3565b604051610190919061263e565b60405180910390f35b6101b360048036038101906101ae9190611e3c565b610578565b005b6101cf60048036038101906101ca9190611d36565b610690565b005b6101eb60048036038101906101e69190611d36565b6106f0565b005b61020760048036038101906102029190611eca565b610710565b604051610214919061263e565b60405180910390f35b61023760048036038101906102329190611cd1565b6107c2565b6040516102449190612902565b60405180910390f35b61025561087a565b005b61025f610902565b60405161026c919061263e565b60405180910390f35b61027d61092c565b60405161028a91906126c0565b60405180910390f35b6102ad60048036038101906102a89190611e00565b6109be565b005b6102c960048036038101906102c49190611d85565b6109d4565b005b6102e560048036038101906102e09190611eca565b610a36565b6040516102f291906126c0565b60405180910390f35b61031560048036038101906103109190611cfa565b610add565b60405161032291906126a5565b60405180910390f35b61034560048036038101906103409190611ef3565b610b71565b005b610361600480360381019061035c9190611cd1565b610cab565b005b61037d60048036038101906103789190611eca565b610da3565b005b60007f80ac58cd000000000000000000000000000000000000000000000000000000007bffffffffffffffffffffffffffffffffffffffffffffffffffffffff1916827bffffffffffffffffffffffffffffffffffffffffffffffffffffffff1916148061044a57507f5b5e139f000000000000000000000000000000000000000000000000000000007bffffffffffffffffffffffffffffffffffffffffffffffffffffffff1916827bffffffffffffffffffffffffffffffffffffffffffffffffffffffff1916145b8061045a575061045982610e1c565b5b9050919050565b60606000805461047090612b3f565b80601f016020809104026020016040519081016040528092919081815260200182805461049c90612b3f565b80156104e95780601f106104be576101008083540402835291602001916104e9565b820191906000526020600020905b8154815290600101906020018083116104cc57829003601f168201915b5050505050905090565b60006104fe82610e86565b61053d576040517f08c379a000000000000000000000000000000000000000000000000000000000815260040161053490612842565b60405180910390fd5b6004600083815260200190815260200160002060009054906101000a900473ffffffffffffffffffffffffffffffffffffffff169050919050565b600061058382610710565b90508073ffffffffffffffffffffffffffffffffffffffff168373ffffffffffffffffffffffffffffffffffffffff1614156105f4576040517f08c379a00000000000000000000000000000000000000000000000000000000081526004016105eb906128c2565b60405180910390fd5b8073ffffffffffffffffffffffffffffffffffffffff16610613610ef2565b73ffffffffffffffffffffffffffffffffffffffff16148061064257506106418161063c610ef2565b610add565b5b610681576040517f08c379a0000000000000000000000000000000000000000000000000000000008152600401610678906127c2565b60405180910390fd5b61068b8383610efa565b505050565b6106a161069b610ef2565b82610fb3565b6106e0576040517f08c379a00000000000000000000000000000000000000000000000000000000081526004016106d7906128e2565b60405180910390fd5b6106eb838383611091565b505050565b61070b838383604051806020016040528060008152506109d4565b505050565b6000806002600084815260200190815260200160002060009054906101000a900473ffffffffffffffffffffffffffffffffffffffff169050600073ffffffffffffffffffffffffffffffffffffffff168173ffffffffffffffffffffffffffffffffffffffff1614156107b9576040517f08c379a00000000000000000000000000000000000000000000000000000000081526004016107b090612802565b60405180910390fd5b80915050919050565b60008073ffffffffffffffffffffffffffffffffffffffff168273ffffffffffffffffffffffffffffffffffffffff161415610833576040517f08c379a000000000000000000000000000000000000000000000000000000000815260040161082a906127e2565b60405180910390fd5b600360008373ffffffffffffffffffffffffffffffffffffffff1673ffffffffffffffffffffffffffffffffffffffff168152602001908152602001600020549050919050565b610882610ef2565b73ffffffffffffffffffffffffffffffffffffffff166108a0610902565b73ffffffffffffffffffffffffffffffffffffffff16146108f6576040517f08c379a00000000000000000000000000000000000000000000000000000000081526004016108ed90612862565b60405180910390fd5b61090060006112f8565b565b6000600660009054906101000a900473ffffffffffffffffffffffffffffffffffffffff16905090565b60606001805461093b90612b3f565b80601f016020809104026020016040519081016040528092919081815260200182805461096790612b3f565b80156109b45780601f10610989576101008083540402835291602001916109b4565b820191906000526020600020905b81548152906001019060200180831161099757829003601f168201915b5050505050905090565b6109d06109c9610ef2565b83836113be565b5050565b6109e56109df610ef2565b83610fb3565b610a24576040517f08c379a0000000000000000000000000000000000000000000000000000000008152600401610a1b906128e2565b60405180910390fd5b610a308484848461152b565b50505050565b6060610a4182610e86565b610a80576040517f08c379a0000000000000000000000000000000000000000000000000000000008152600401610a7790612882565b60405180910390fd5b6000610a8a611587565b90506000815111610aaa5760405180602001604052806000815250610ad5565b80610ab48461159e565b604051602001610ac592919061261a565b6040516020818303038152906040525b915050919050565b6000600560008473ffffffffffffffffffffffffffffffffffffffff1673ffffffffffffffffffffffffffffffffffffffff16815260200190815260200160002060008373ffffffffffffffffffffffffffffffffffffffff1673ffffffffffffffffffffffffffffffffffffffff16815260200190815260200160002060009054906101000a900460ff16905092915050565b610b79610ef2565b73ffffffffffffffffffffffffffffffffffffffff16610b97610902565b73ffffffffffffffffffffffffffffffffffffffff1614610bed576040517f08c379a0000000000000000000000000000000000000000000000000000000008152600401610be490612862565b60405180910390fd5b60405180608001604052808460ff1681526020018360ff1681526020014281526020018281525060086000600754815260200190815260200160002060008201518160000160006101000a81548160ff021916908360ff16021790555060208201518160000160016101000a81548160ff021916908360ff1602179055506040820151816001015560608201518160020155905050610c8e3360075461174b565b60076000815480929190610ca190612b71565b9190505550505050565b610cb3610ef2565b73ffffffffffffffffffffffffffffffffffffffff16610cd1610902565b73ffffffffffffffffffffffffffffffffffffffff1614610d27576040517f08c379a0000000000000000000000000000000000000000000000000000000008152600401610d1e90612862565b60405180910390fd5b600073ffffffffffffffffffffffffffffffffffffffff168173ffffffffffffffffffffffffffffffffffffffff161415610d97576040517f08c379a0000000000000000000000000000000000000000000000000000000008152600401610d8e90612702565b60405180910390fd5b610da0816112f8565b50565b60006008600083815260200190815260200160002090504281600201548260010154610dcf91906129c1565b11610e0f576040517f08c379a0000000000000000000000000000000000000000000000000000000008152600401610e06906128a2565b60405180910390fd5b4281600101819055505050565b60007f01ffc9a7000000000000000000000000000000000000000000000000000000007bffffffffffffffffffffffffffffffffffffffffffffffffffffffff1916827bffffffffffffffffffffffffffffffffffffffffffffffffffffffff1916149050919050565b60008073ffffffffffffffffffffffffffffffffffffffff166002600084815260200190815260200160002060009054906101000a900473ffffffffffffffffffffffffffffffffffffffff1673ffffffffffffffffffffffffffffffffffffffff1614159050919050565b600033905090565b816004600083815260200190815260200160002060006101000a81548173ffffffffffffffffffffffffffffffffffffffff021916908373ffffffffffffffffffffffffffffffffffffffff160217905550808273ffffffffffffffffffffffffffffffffffffffff16610f6d83610710565b73ffffffffffffffffffffffffffffffffffffffff167f8c5be1e5ebec7d5bd14f71427d1e84f3dd0314c0f7b2291e5b200ac8c7c3b92560405160405180910390a45050565b6000610fbe82610e86565b610ffd576040517f08c379a0000000000000000000000000000000000000000000000000000000008152600401610ff4906127a2565b60405180910390fd5b600061100883610710565b90508073ffffffffffffffffffffffffffffffffffffffff168473ffffffffffffffffffffffffffffffffffffffff16148061107757508373ffffffffffffffffffffffffffffffffffffffff1661105f846104f3565b73ffffffffffffffffffffffffffffffffffffffff16145b8061108857506110878185610add565b5b91505092915050565b8273ffffffffffffffffffffffffffffffffffffffff166110b182610710565b73ffffffffffffffffffffffffffffffffffffffff1614611107576040517f08c379a00000000000000000000000000000000000000000000000000000000081526004016110fe90612722565b60405180910390fd5b600073ffffffffffffffffffffffffffffffffffffffff168273ffffffffffffffffffffffffffffffffffffffff161415611177576040517f08c379a000000000000000000000000000000000000000000000000000000000815260040161116e90612762565b60405180910390fd5b611182838383611769565b61118d600082610efa565b6001600360008573ffffffffffffffffffffffffffffffffffffffff1673ffffffffffffffffffffffffffffffffffffffff16815260200190815260200160002060008282546111dd9190612a48565b925050819055506001600360008473ffffffffffffffffffffffffffffffffffffffff1673ffffffffffffffffffffffffffffffffffffffff168152602001908152602001600020600082825461123491906129c1565b92505081905550816002600083815260200190815260200160002060006101000a81548173ffffffffffffffffffffffffffffffffffffffff021916908373ffffffffffffffffffffffffffffffffffffffff160217905550808273ffffffffffffffffffffffffffffffffffffffff168473ffffffffffffffffffffffffffffffffffffffff167fddf252ad1be2c89b69c2b068fc378daa952ba7f163c4a11628f55a4df523b3ef60405160405180910390a46112f38383836117db565b505050565b6000600660009054906101000a900473ffffffffffffffffffffffffffffffffffffffff16905081600660006101000a81548173ffffffffffffffffffffffffffffffffffffffff021916908373ffffffffffffffffffffffffffffffffffffffff1602179055508173ffffffffffffffffffffffffffffffffffffffff168173ffffffffffffffffffffffffffffffffffffffff167f8be0079c531659141344cd1fd0a4f28419497f9722a3daafe3b4186f6b6457e060405160405180910390a35050565b8173ffffffffffffffffffffffffffffffffffffffff168373ffffffffffffffffffffffffffffffffffffffff16141561142d576040517f08c379a000000000000000000000000000000000000000000000000000000000815260040161142490612782565b60405180910390fd5b80600560008573ffffffffffffffffffffffffffffffffffffffff1673ffffffffffffffffffffffffffffffffffffffff16815260200190815260200160002060008473ffffffffffffffffffffffffffffffffffffffff1673ffffffffffffffffffffffffffffffffffffffff16815260200190815260200160002060006101000a81548160ff0219169083151502179055508173ffffffffffffffffffffffffffffffffffffffff168373ffffffffffffffffffffffffffffffffffffffff167f17307eab39ab6107e8899845ad3d59bd9653f200f220920489ca2b5937696c318360405161151e91906126a5565b60405180910390a3505050565b611536848484611091565b611542848484846117e0565b611581576040517f08c379a0000000000000000000000000000000000000000000000000000000008152600401611578906126e2565b60405180910390fd5b50505050565b606060405180602001604052806000815250905090565b606060008214156115e6576040518060400160405280600181526020017f30000000000000000000000000000000000000000000000000000000000000008152509050611746565b600082905060005b6000821461161857808061160190612b71565b915050600a826116119190612a17565b91506115ee565b60008167ffffffffffffffff81111561165a577f4e487b7100000000000000000000000000000000000000000000000000000000600052604160045260246000fd5b6040519080825280601f01601f19166020018201604052801561168c5781602001600182028036833780820191505090505b5090505b6000851461173f576001826116a59190612a48565b9150600a856116b49190612bba565b60306116c091906129c1565b60f81b8183815181106116fc577f4e487b7100000000000000000000000000000000000000000000000000000000600052603260045260246000fd5b60200101907effffffffffffffffffffffffffffffffffffffffffffffffffffffffffffff1916908160001a905350600a856117389190612a17565b9450611690565b8093505050505b919050565b611765828260405180602001604052806000815250611977565b5050565b6000600860008381526020019081526020016000209050428160020154826001015461179591906129c1565b116117d5576040517f08c379a00000000000000000000000000000000000000000000000000000000081526004016117cc906128a2565b60405180910390fd5b50505050565b505050565b60006118018473ffffffffffffffffffffffffffffffffffffffff166119d2565b1561196a578373ffffffffffffffffffffffffffffffffffffffff1663150b7a0261182a610ef2565b8786866040518563ffffffff1660e01b815260040161184c9493929190612659565b602060405180830381600087803b15801561186657600080fd5b505af192505050801561189757506040513d601f19601f820116820180604052508101906118949190611ea1565b60015b61191a573d80600081146118c7576040519150601f19603f3d011682016040523d82523d6000602084013e6118cc565b606091505b50600081511415611912576040517f08c379a0000000000000000000000000000000000000000000000000000000008152600401611909906126e2565b60405180910390fd5b805181602001fd5b63150b7a0260e01b7bffffffffffffffffffffffffffffffffffffffffffffffffffffffff1916817bffffffffffffffffffffffffffffffffffffffffffffffffffffffff19161491505061196f565b600190505b949350505050565b6119818383611a11565b61198e60008484846117e0565b6119cd576040517f08c379a00000000000000000000000000000000000000000000000000000000081526004016119c4906126e2565b60405180910390fd5b505050565b6000808273ffffffffffffffffffffffffffffffffffffffff16803b806020016040519081016040528181526000908060200190933c51119050919050565b600073ffffffffffffffffffffffffffffffffffffffff168273ffffffffffffffffffffffffffffffffffffffff161415611a81576040517f08c379a0000000000000000000000000000000000000000000000000000000008152600401611a7890612822565b60405180910390fd5b611a8a81610e86565b15611aca576040517f08c379a0000000000000000000000000000000000000000000000000000000008152600401611ac190612742565b60405180910390fd5b611ad660008383611769565b6001600360008473ffffffffffffffffffffffffffffffffffffffff1673ffffffffffffffffffffffffffffffffffffffff1681526020019081526020016000206000828254611b2691906129c1565b92505081905550816002600083815260200190815260200160002060006101000a81548173ffffffffffffffffffffffffffffffffffffffff021916908373ffffffffffffffffffffffffffffffffffffffff160217905550808273ffffffffffffffffffffffffffffffffffffffff16600073ffffffffffffffffffffffffffffffffffffffff167fddf252ad1be2c89b69c2b068fc378daa952ba7f163c4a11628f55a4df523b3ef60405160405180910390a4611be7600083836117db565b5050565b6000611bfe611bf98461294e565b61291d565b905082815260208101848484011115611c1657600080fd5b611c21848285612afd565b509392505050565b600081359050611c3881612cb8565b92915050565b600081359050611c4d81612ccf565b92915050565b600081359050611c6281612ce6565b92915050565b600081519050611c7781612ce6565b92915050565b600082601f830112611c8e57600080fd5b8135611c9e848260208601611beb565b91505092915050565b600081359050611cb681612cfd565b92915050565b600081359050611ccb81612d14565b92915050565b600060208284031215611ce357600080fd5b6000611cf184828501611c29565b91505092915050565b60008060408385031215611d0d57600080fd5b6000611d1b85828601611c29565b9250506020611d2c85828601611c29565b9150509250929050565b600080600060608486031215611d4b57600080fd5b6000611d5986828701611c29565b9350506020611d6a86828701611c29565b9250506040611d7b86828701611ca7565b9150509250925092565b60008060008060808587031215611d9b57600080fd5b6000611da987828801611c29565b9450506020611dba87828801611c29565b9350506040611dcb87828801611ca7565b925050606085013567ffffffffffffffff811115611de857600080fd5b611df487828801611c7d565b91505092959194509250565b60008060408385031215611e1357600080fd5b6000611e2185828601611c29565b9250506020611e3285828601611c3e565b9150509250929050565b60008060408385031215611e4f57600080fd5b6000611e5d85828601611c29565b9250506020611e6e85828601611ca7565b9150509250929050565b600060208284031215611e8a57600080fd5b6000611e9884828501611c53565b91505092915050565b600060208284031215611eb357600080fd5b6000611ec184828501611c68565b91505092915050565b600060208284031215611edc57600080fd5b6000611eea84828501611ca7565b91505092915050565b600080600060608486031215611f0857600080fd5b6000611f1686828701611cbc565b9350506020611f2786828701611cbc565b9250506040611f3886828701611ca7565b9150509250925092565b611f4b81612a7c565b82525050565b611f5a81612a8e565b82525050565b6000611f6b8261297e565b611f758185612994565b9350611f85818560208601612b0c565b611f8e81612ca7565b840191505092915050565b6000611fa482612989565b611fae81856129a5565b9350611fbe818560208601612b0c565b611fc781612ca7565b840191505092915050565b6000611fdd82612989565b611fe781856129b6565b9350611ff7818560208601612b0c565b80840191505092915050565b60006120106032836129a5565b91507f4552433732313a207472616e7366657220746f206e6f6e20455243373231526560008301527f63656976657220696d706c656d656e74657200000000000000000000000000006020830152604082019050919050565b60006120766026836129a5565b91507f4f776e61626c653a206e6577206f776e657220697320746865207a65726f206160008301527f64647265737300000000000000000000000000000000000000000000000000006020830152604082019050919050565b60006120dc6025836129a5565b91507f4552433732313a207472616e736665722066726f6d20696e636f72726563742060008301527f6f776e65720000000000000000000000000000000000000000000000000000006020830152604082019050919050565b6000612142601c836129a5565b91507f4552433732313a20746f6b656e20616c7265616479206d696e746564000000006000830152602082019050919050565b60006121826024836129a5565b91507f4552433732313a207472616e7366657220746f20746865207a65726f2061646460008301527f72657373000000000000000000000000000000000000000000000000000000006020830152604082019050919050565b60006121e86019836129a5565b91507f4552433732313a20617070726f766520746f2063616c6c6572000000000000006000830152602082019050919050565b6000612228602c836129a5565b91507f4552433732313a206f70657261746f7220717565727920666f72206e6f6e657860008301527f697374656e7420746f6b656e00000000000000000000000000000000000000006020830152604082019050919050565b600061228e6038836129a5565b91507f4552433732313a20617070726f76652063616c6c6572206973206e6f74206f7760008301527f6e6572206e6f7220617070726f76656420666f7220616c6c00000000000000006020830152604082019050919050565b60006122f4602a836129a5565b91507f4552433732313a2062616c616e636520717565727920666f7220746865207a6560008301527f726f2061646472657373000000000000000000000000000000000000000000006020830152604082019050919050565b600061235a6029836129a5565b91507f4552433732313a206f776e657220717565727920666f72206e6f6e657869737460008301527f656e7420746f6b656e00000000000000000000000000000000000000000000006020830152604082019050919050565b60006123c06020836129a5565b91507f4552433732313a206d696e7420746f20746865207a65726f20616464726573736000830152602082019050919050565b6000612400602c836129a5565b91507f4552433732313a20617070726f76656420717565727920666f72206e6f6e657860008301527f697374656e7420746f6b656e00000000000000000000000000000000000000006020830152604082019050919050565b60006124666020836129a5565b91507f4f776e61626c653a2063616c6c6572206973206e6f7420746865206f776e65726000830152602082019050919050565b60006124a6602f836129a5565b91507f4552433732314d657461646174613a2055524920717565727920666f72206e6f60008301527f6e6578697374656e7420746f6b656e00000000000000000000000000000000006020830152604082019050919050565b600061250c6020836129a5565b91507f416c617320796f75722070657420697320616c726561647920646561642e2e2e6000830152602082019050919050565b600061254c6021836129a5565b91507f4552433732313a20617070726f76616c20746f2063757272656e74206f776e6560008301527f72000000000000000000000000000000000000000000000000000000000000006020830152604082019050919050565b60006125b26031836129a5565b91507f4552433732313a207472616e736665722063616c6c6572206973206e6f74206f60008301527f776e6572206e6f7220617070726f7665640000000000000000000000000000006020830152604082019050919050565b61261481612ae6565b82525050565b60006126268285611fd2565b91506126328284611fd2565b91508190509392505050565b60006020820190506126536000830184611f42565b92915050565b600060808201905061266e6000830187611f42565b61267b6020830186611f42565b612688604083018561260b565b818103606083015261269a8184611f60565b905095945050505050565b60006020820190506126ba6000830184611f51565b92915050565b600060208201905081810360008301526126da8184611f99565b905092915050565b600060208201905081810360008301526126fb81612003565b9050919050565b6000602082019050818103600083015261271b81612069565b9050919050565b6000602082019050818103600083015261273b816120cf565b9050919050565b6000602082019050818103600083015261275b81612135565b9050919050565b6000602082019050818103600083015261277b81612175565b9050919050565b6000602082019050818103600083015261279b816121db565b9050919050565b600060208201905081810360008301526127bb8161221b565b9050919050565b600060208201905081810360008301526127db81612281565b9050919050565b600060208201905081810360008301526127fb816122e7565b9050919050565b6000602082019050818103600083015261281b8161234d565b9050919050565b6000602082019050818103600083015261283b816123b3565b9050919050565b6000602082019050818103600083015261285b816123f3565b9050919050565b6000602082019050818103600083015261287b81612459565b9050919050565b6000602082019050818103600083015261289b81612499565b9050919050565b600060208201905081810360008301526128bb816124ff565b9050919050565b600060208201905081810360008301526128db8161253f565b9050919050565b600060208201905081810360008301526128fb816125a5565b9050919050565b6000602082019050612917600083018461260b565b92915050565b6000604051905081810181811067ffffffffffffffff8211171561294457612943612c78565b5b8060405250919050565b600067ffffffffffffffff82111561296957612968612c78565b5b601f19601f8301169050602081019050919050565b600081519050919050565b600081519050919050565b600082825260208201905092915050565b600082825260208201905092915050565b600081905092915050565b60006129cc82612ae6565b91506129d783612ae6565b9250827fffffffffffffffffffffffffffffffffffffffffffffffffffffffffffffffff03821115612a0c57612a0b612beb565b5b828201905092915050565b6000612a2282612ae6565b9150612a2d83612ae6565b925082612a3d57612a3c612c1a565b5b828204905092915050565b6000612a5382612ae6565b9150612a5e83612ae6565b925082821015612a7157612a70612beb565b5b828203905092915050565b6000612a8782612ac6565b9050919050565b60008115159050919050565b60007fffffffff0000000000000000000000000000000000000000000000000000000082169050919050565b600073ffffffffffffffffffffffffffffffffffffffff82169050919050565b6000819050919050565b600060ff82169050919050565b82818337600083830152505050565b60005b83811015612b2a578082015181840152602081019050612b0f565b83811115612b39576000848401525b50505050565b60006002820490506001821680612b5757607f821691505b60208210811415612b6b57612b6a612c49565b5b50919050565b6000612b7c82612ae6565b91507fffffffffffffffffffffffffffffffffffffffffffffffffffffffffffffffff821415612baf57612bae612beb565b5b600182019050919050565b6000612bc582612ae6565b9150612bd083612ae6565b925082612be057612bdf612c1a565b5b828206905092915050565b7f4e487b7100000000000000000000000000000000000000000000000000000000600052601160045260246000fd5b7f4e487b7100000000000000000000000000000000000000000000000000000000600052601260045260246000fd5b7f4e487b7100000000000000000000000000000000000000000000000000000000600052602260045260246000fd5b7f4e487b7100000000000000000000000000000000000000000000000000000000600052604160045260246000fd5b6000601f19601f8301169050919050565b612cc181612a7c565b8114612ccc57600080fd5b50565b612cd881612a8e565b8114612ce357600080fd5b50565b612cef81612a9a565b8114612cfa57600080fd5b50565b612d0681612ae6565b8114612d1157600080fd5b50565b612d1d81612af0565b8114612d2857600080fd5b5056fea26469706673582212205172b61fb80965a369bffb1dfe90e12af1213206041106851b05f2f13838564d64736f6c63430008000033",
  "immutableReferences": {},
  "source": "// SPDX-License-Identifier: MIT\npragma solidity 0.8.0;\n\nimport \"../node_modules/@openzeppelin/contracts/token/ERC721/ERC721.sol\";\nimport \"../node_modules/@openzeppelin/contracts/access/Ownable.sol\";\n\ncontract Token is ERC721, Ownable {\n    struct Pet {\n        uint8 damage; // 0-256\n        uint8 magic;\n        uint256 lastMeal; // when this pet last got feed\n        uint256 endurance; // how log does the pet goes without food\n    }\n\n    uint256 nextId = 0;\n\n    mapping(uint256 => Pet) private _tokenDetails;\n\n    constructor(string memory name, string memory symbol)\n        ERC721(name, symbol)\n    {}\n\n    function mint(\n        uint8 damage,\n        uint8 magic,\n        uint256 endurance\n    ) public onlyOwner {\n        _tokenDetails[nextId] = Pet(damage, magic, block.timestamp, endurance);\n        _safeMint(msg.sender, nextId);\n        nextId++;\n    }\n\n    function feed(uint256 tokenId) public {\n        Pet storage pet = _tokenDetails[tokenId];\n        require(\n            pet.lastMeal + pet.endurance > block.timestamp,\n            \"Alas your pet is already dead...\"\n        );\n        pet.lastMeal = block.timestamp;\n    }\n\n    function _beforeTokenTransfer(\n        address from,\n        address to,\n        uint256 tokenId\n    ) internal view override {\n        Pet storage pet = _tokenDetails[tokenId];\n        require(\n            pet.lastMeal + pet.endurance > block.timestamp,\n            \"Alas your pet is already dead...\"\n        );\n    }\n}\n",
  "sourcePath": "/home/min/Projects/moralis-nft-game/contracts/Token.sol",
  "compiler": {
    "name": "solc",
    "version": "0.8.0+commit.c7dfd78e.Emscripten.clang"
  },
  "schemaVersion": "3.4.4",
  "updatedAt": "2022-02-27T12:57:47.633Z",
  "devdoc": {
    "kind": "dev",
    "methods": {
      "approve(address,uint256)": {
        "details": "See {IERC721-approve}."
      },
      "balanceOf(address)": {
        "details": "See {IERC721-balanceOf}."
      },
      "getApproved(uint256)": {
        "details": "See {IERC721-getApproved}."
      },
      "isApprovedForAll(address,address)": {
        "details": "See {IERC721-isApprovedForAll}."
      },
      "name()": {
        "details": "See {IERC721Metadata-name}."
      },
      "owner()": {
        "details": "Returns the address of the current owner."
      },
      "ownerOf(uint256)": {
        "details": "See {IERC721-ownerOf}."
      },
      "renounceOwnership()": {
        "details": "Leaves the contract without owner. It will not be possible to call `onlyOwner` functions anymore. Can only be called by the current owner. NOTE: Renouncing ownership will leave the contract without an owner, thereby removing any functionality that is only available to the owner."
      },
      "safeTransferFrom(address,address,uint256)": {
        "details": "See {IERC721-safeTransferFrom}."
      },
      "safeTransferFrom(address,address,uint256,bytes)": {
        "details": "See {IERC721-safeTransferFrom}."
      },
      "setApprovalForAll(address,bool)": {
        "details": "See {IERC721-setApprovalForAll}."
      },
      "supportsInterface(bytes4)": {
        "details": "See {IERC165-supportsInterface}."
      },
      "symbol()": {
        "details": "See {IERC721Metadata-symbol}."
      },
      "tokenURI(uint256)": {
        "details": "See {IERC721Metadata-tokenURI}."
      },
      "transferFrom(address,address,uint256)": {
        "details": "See {IERC721-transferFrom}."
      },
      "transferOwnership(address)": {
        "details": "Transfers ownership of the contract to a new account (`newOwner`). Can only be called by the current owner."
      }
    },
    "version": 1
  },
  "userdoc": {
    "kind": "user",
    "methods": {},
    "version": 1
  }
}