{
  "contractName": "Token",
  "abi": [
    {
      "inputs": [
        {
          "internalType": "string",
          "name": "name",
          "type": "string"
        },
        {
          "internalType": "string",
          "name": "symbol",
          "type": "string"
        }
      ],
      "stateMutability": "nonpayable",
      "type": "constructor"
    },
    {
      "anonymous": false,
      "inputs": [
        {
          "indexed": true,
          "internalType": "address",
          "name": "owner",
          "type": "address"
        },
        {
          "indexed": true,
          "internalType": "address",
          "name": "approved",
          "type": "address"
        },
        {
          "indexed": true,
          "internalType": "uint256",
          "name": "tokenId",
          "type": "uint256"
        }
      ],
      "name": "Approval",
      "type": "event"
    },
    {
      "anonymous": false,
      "inputs": [
        {
          "indexed": true,
          "internalType": "address",
          "name": "owner",
          "type": "address"
        },
        {
          "indexed": true,
          "internalType": "address",
          "name": "operator",
          "type": "address"
        },
        {
          "indexed": false,
          "internalType": "bool",
          "name": "approved",
          "type": "bool"
        }
      ],
      "name": "ApprovalForAll",
      "type": "event"
    },
    {
      "anonymous": false,
      "inputs": [
        {
          "indexed": true,
          "internalType": "address",
          "name": "previousOwner",
          "type": "address"
        },
        {
          "indexed": true,
          "internalType": "address",
          "name": "newOwner",
          "type": "address"
        }
      ],
      "name": "OwnershipTransferred",
      "type": "event"
    },
    {
      "anonymous": false,
      "inputs": [
        {
          "indexed": true,
          "internalType": "address",
          "name": "from",
          "type": "address"
        },
        {
          "indexed": true,
          "internalType": "address",
          "name": "to",
          "type": "address"
        },
        {
          "indexed": true,
          "internalType": "uint256",
          "name": "tokenId",
          "type": "uint256"
        }
      ],
      "name": "Transfer",
      "type": "event"
    },
    {
      "inputs": [
        {
          "internalType": "address",
          "name": "to",
          "type": "address"
        },
        {
          "internalType": "uint256",
          "name": "tokenId",
          "type": "uint256"
        }
      ],
      "name": "approve",
      "outputs": [],
      "stateMutability": "nonpayable",
      "type": "function"
    },
    {
      "inputs": [
        {
          "internalType": "address",
          "name": "owner",
          "type": "address"
        }
      ],
      "name": "balanceOf",
      "outputs": [
        {
          "internalType": "uint256",
          "name": "",
          "type": "uint256"
        }
      ],
      "stateMutability": "view",
      "type": "function",
      "constant": true
    },
    {
      "inputs": [
        {
          "internalType": "uint256",
          "name": "tokenId",
          "type": "uint256"
        }
      ],
      "name": "getApproved",
      "outputs": [
        {
          "internalType": "address",
          "name": "",
          "type": "address"
        }
      ],
      "stateMutability": "view",
      "type": "function",
      "constant": true
    },
    {
      "inputs": [
        {
          "internalType": "address",
          "name": "owner",
          "type": "address"
        },
        {
          "internalType": "address",
          "name": "operator",
          "type": "address"
        }
      ],
      "name": "isApprovedForAll",
      "outputs": [
        {
          "internalType": "bool",
          "name": "",
          "type": "bool"
        }
      ],
      "stateMutability": "view",
      "type": "function",
      "constant": true
    },
    {
      "inputs": [],
      "name": "name",
      "outputs": [
        {
          "internalType": "string",
          "name": "",
          "type": "string"
        }
      ],
      "stateMutability": "view",
      "type": "function",
      "constant": true
    },
    {
      "inputs": [],
      "name": "owner",
      "outputs": [
        {
          "internalType": "address",
          "name": "",
          "type": "address"
        }
      ],
      "stateMutability": "view",
      "type": "function",
      "constant": true
    },
    {
      "inputs": [
        {
          "internalType": "uint256",
          "name": "tokenId",
          "type": "uint256"
        }
      ],
      "name": "ownerOf",
      "outputs": [
        {
          "internalType": "address",
          "name": "",
          "type": "address"
        }
      ],
      "stateMutability": "view",
      "type": "function",
      "constant": true
    },
    {
      "inputs": [],
      "name": "renounceOwnership",
      "outputs": [],
      "stateMutability": "nonpayable",
      "type": "function"
    },
    {
      "inputs": [
        {
          "internalType": "address",
          "name": "from",
          "type": "address"
        },
        {
          "internalType": "address",
          "name": "to",
          "type": "address"
        },
        {
          "internalType": "uint256",
          "name": "tokenId",
          "type": "uint256"
        }
      ],
      "name": "safeTransferFrom",
      "outputs": [],
      "stateMutability": "nonpayable",
      "type": "function"
    },
    {
      "inputs": [
        {
          "internalType": "address",
          "name": "from",
          "type": "address"
        },
        {
          "internalType": "address",
          "name": "to",
          "type": "address"
        },
        {
          "internalType": "uint256",
          "name": "tokenId",
          "type": "uint256"
        },
        {
          "internalType": "bytes",
          "name": "_data",
          "type": "bytes"
        }
      ],
      "name": "safeTransferFrom",
      "outputs": [],
      "stateMutability": "nonpayable",
      "type": "function"
    },
    {
      "inputs": [
        {
          "internalType": "address",
          "name": "operator",
          "type": "address"
        },
        {
          "internalType": "bool",
          "name": "approved",
          "type": "bool"
        }
      ],
      "name": "setApprovalForAll",
      "outputs": [],
      "stateMutability": "nonpayable",
      "type": "function"
    },
    {
      "inputs": [
        {
          "internalType": "bytes4",
          "name": "interfaceId",
          "type": "bytes4"
        }
      ],
      "name": "supportsInterface",
      "outputs": [
        {
          "internalType": "bool",
          "name": "",
          "type": "bool"
        }
      ],
      "stateMutability": "view",
      "type": "function",
      "constant": true
    },
    {
      "inputs": [],
      "name": "symbol",
      "outputs": [
        {
          "internalType": "string",
          "name": "",
          "type": "string"
        }
      ],
      "stateMutability": "view",
      "type": "function",
      "constant": true
    },
    {
      "inputs": [
        {
          "internalType": "uint256",
          "name": "tokenId",
          "type": "uint256"
        }
      ],
      "name": "tokenURI",
      "outputs": [
        {
          "internalType": "string",
          "name": "",
          "type": "string"
        }
      ],
      "stateMutability": "view",
      "type": "function",
      "constant": true
    },
    {
      "inputs": [
        {
          "internalType": "address",
          "name": "from",
          "type": "address"
        },
        {
          "internalType": "address",
          "name": "to",
          "type": "address"
        },
        {
          "internalType": "uint256",
          "name": "tokenId",
          "type": "uint256"
        }
      ],
      "name": "transferFrom",
      "outputs": [],
      "stateMutability": "nonpayable",
      "type": "function"
    },
    {
      "inputs": [
        {
          "internalType": "address",
          "name": "newOwner",
          "type": "address"
        }
      ],
      "name": "transferOwnership",
      "outputs": [],
      "stateMutability": "nonpayable",
      "type": "function"
    },
    {
      "inputs": [
        {
          "internalType": "uint256",
          "name": "tokenId",
          "type": "uint256"
        }
      ],
      "name": "getTokenDetails",
      "outputs": [
        {
          "components": [
            {
              "internalType": "uint8",
              "name": "damage",
              "type": "uint8"
            },
            {
              "internalType": "uint8",
              "name": "magic",
              "type": "uint8"
            },
            {
              "internalType": "uint256",
              "name": "lastMeal",
              "type": "uint256"
            },
            {
              "internalType": "uint256",
              "name": "endurance",
              "type": "uint256"
            }
          ],
          "internalType": "struct Token.Pet",
          "name": "",
          "type": "tuple"
        }
      ],
      "stateMutability": "view",
      "type": "function",
      "constant": true
    },
    {
      "inputs": [
        {
          "internalType": "uint8",
          "name": "damage",
          "type": "uint8"
        },
        {
          "internalType": "uint8",
          "name": "magic",
          "type": "uint8"
        },
        {
          "internalType": "uint256",
          "name": "endurance",
          "type": "uint256"
        }
      ],
      "name": "mint",
      "outputs": [],
      "stateMutability": "nonpayable",
      "type": "function"
    },
    {
      "inputs": [
        {
          "internalType": "uint256",
          "name": "tokenId",
          "type": "uint256"
        }
      ],
      "name": "feed",
      "outputs": [],
      "stateMutability": "nonpayable",
      "type": "function"
    }
  ],
  "bytecode": "0x608060405260006007553480156200001657600080fd5b50604051620033113803806200331183398181016040528101906200003c91906200028a565b818181600090805190602001906200005692919062000168565b5080600190805190602001906200006f92919062000168565b50505062000092620000866200009a60201b60201c565b620000a260201b60201c565b50506200042e565b600033905090565b6000600660009054906101000a900473ffffffffffffffffffffffffffffffffffffffff16905081600660006101000a81548173ffffffffffffffffffffffffffffffffffffffff021916908373ffffffffffffffffffffffffffffffffffffffff1602179055508173ffffffffffffffffffffffffffffffffffffffff168173ffffffffffffffffffffffffffffffffffffffff167f8be0079c531659141344cd1fd0a4f28419497f9722a3daafe3b4186f6b6457e060405160405180910390a35050565b82805462000176906200039a565b90600052602060002090601f0160209004810192826200019a5760008555620001e6565b82601f10620001b557805160ff1916838001178555620001e6565b82800160010185558215620001e6579182015b82811115620001e5578251825591602001919060010190620001c8565b5b509050620001f59190620001f9565b5090565b5b8082111562000214576000816000905550600101620001fa565b5090565b60006200022f620002298462000331565b620002fd565b9050828152602081018484840111156200024857600080fd5b6200025584828562000364565b509392505050565b600082601f8301126200026f57600080fd5b81516200028184826020860162000218565b91505092915050565b600080604083850312156200029e57600080fd5b600083015167ffffffffffffffff811115620002b957600080fd5b620002c7858286016200025d565b925050602083015167ffffffffffffffff811115620002e557600080fd5b620002f3858286016200025d565b9150509250929050565b6000604051905081810181811067ffffffffffffffff82111715620003275762000326620003ff565b5b8060405250919050565b600067ffffffffffffffff8211156200034f576200034e620003ff565b5b601f19601f8301169050602081019050919050565b60005b838110156200038457808201518184015260208101905062000367565b8381111562000394576000848401525b50505050565b60006002820490506001821680620003b357607f821691505b60208210811415620003ca57620003c9620003d0565b5b50919050565b7f4e487b7100000000000000000000000000000000000000000000000000000000600052602260045260246000fd5b7f4e487b7100000000000000000000000000000000000000000000000000000000600052604160045260246000fd5b612ed3806200043e6000396000f3fe608060405234801561001057600080fd5b50600436106101215760003560e01c80638da5cb5b116100ad578063c87b56dd11610071578063c87b56dd14610306578063e985e9c514610336578063eb22ed3214610366578063f2fde38b14610382578063f59dfdfb1461039e57610121565b80638da5cb5b1461026257806395d89b4114610280578063a22cb4651461029e578063b88d4fde146102ba578063c1e03728146102d657610121565b806323b872dd116100f457806323b872dd146101c057806342842e0e146101dc5780636352211e146101f857806370a0823114610228578063715018a61461025857610121565b806301ffc9a71461012657806306fdde0314610156578063081812fc14610174578063095ea7b3146101a4575b600080fd5b610140600480360381019061013b9190611f5c565b6103ba565b60405161014d91906127fc565b60405180910390f35b61015e61049c565b60405161016b9190612817565b60405180910390f35b61018e60048036038101906101899190611fae565b61052e565b60405161019b9190612795565b60405180910390f35b6101be60048036038101906101b99190611f20565b6105b3565b005b6101da60048036038101906101d59190611e1a565b6106cb565b005b6101f660048036038101906101f19190611e1a565b61072b565b005b610212600480360381019061020d9190611fae565b61074b565b60405161021f9190612795565b60405180910390f35b610242600480360381019061023d9190611db5565b6107fd565b60405161024f9190612a74565b60405180910390f35b6102606108b5565b005b61026a61093d565b6040516102779190612795565b60405180910390f35b610288610967565b6040516102959190612817565b60405180910390f35b6102b860048036038101906102b39190611ee4565b6109f9565b005b6102d460048036038101906102cf9190611e69565b610a0f565b005b6102f060048036038101906102eb9190611fae565b610a71565b6040516102fd9190612a59565b60405180910390f35b610320600480360381019061031b9190611fae565b610aec565b60405161032d9190612817565b60405180910390f35b610350600480360381019061034b9190611dde565b610b93565b60405161035d91906127fc565b60405180910390f35b610380600480360381019061037b9190611fd7565b610c27565b005b61039c60048036038101906103979190611db5565b610d61565b005b6103b860048036038101906103b39190611fae565b610e59565b005b60007f80ac58cd000000000000000000000000000000000000000000000000000000007bffffffffffffffffffffffffffffffffffffffffffffffffffffffff1916827bffffffffffffffffffffffffffffffffffffffffffffffffffffffff1916148061048557507f5b5e139f000000000000000000000000000000000000000000000000000000007bffffffffffffffffffffffffffffffffffffffffffffffffffffffff1916827bffffffffffffffffffffffffffffffffffffffffffffffffffffffff1916145b80610495575061049482610ed2565b5b9050919050565b6060600080546104ab90612cb1565b80601f01602080910402602001604051908101604052809291908181526020018280546104d790612cb1565b80156105245780601f106104f957610100808354040283529160200191610524565b820191906000526020600020905b81548152906001019060200180831161050757829003601f168201915b5050505050905090565b600061053982610f3c565b610578576040517f08c379a000000000000000000000000000000000000000000000000000000000815260040161056f90612999565b60405180910390fd5b6004600083815260200190815260200160002060009054906101000a900473ffffffffffffffffffffffffffffffffffffffff169050919050565b60006105be8261074b565b90508073ffffffffffffffffffffffffffffffffffffffff168373ffffffffffffffffffffffffffffffffffffffff16141561062f576040517f08c379a000000000000000000000000000000000000000000000000000000000815260040161062690612a19565b60405180910390fd5b8073ffffffffffffffffffffffffffffffffffffffff1661064e610fa8565b73ffffffffffffffffffffffffffffffffffffffff16148061067d575061067c81610677610fa8565b610b93565b5b6106bc576040517f08c379a00000000000000000000000000000000000000000000000000000000081526004016106b390612919565b60405180910390fd5b6106c68383610fb0565b505050565b6106dc6106d6610fa8565b82611069565b61071b576040517f08c379a000000000000000000000000000000000000000000000000000000000815260040161071290612a39565b60405180910390fd5b610726838383611147565b505050565b61074683838360405180602001604052806000815250610a0f565b505050565b6000806002600084815260200190815260200160002060009054906101000a900473ffffffffffffffffffffffffffffffffffffffff169050600073ffffffffffffffffffffffffffffffffffffffff168173ffffffffffffffffffffffffffffffffffffffff1614156107f4576040517f08c379a00000000000000000000000000000000000000000000000000000000081526004016107eb90612959565b60405180910390fd5b80915050919050565b60008073ffffffffffffffffffffffffffffffffffffffff168273ffffffffffffffffffffffffffffffffffffffff16141561086e576040517f08c379a000000000000000000000000000000000000000000000000000000000815260040161086590612939565b60405180910390fd5b600360008373ffffffffffffffffffffffffffffffffffffffff1673ffffffffffffffffffffffffffffffffffffffff168152602001908152602001600020549050919050565b6108bd610fa8565b73ffffffffffffffffffffffffffffffffffffffff166108db61093d565b73ffffffffffffffffffffffffffffffffffffffff1614610931576040517f08c379a0000000000000000000000000000000000000000000000000000000008152600401610928906129b9565b60405180910390fd5b61093b60006113ae565b565b6000600660009054906101000a900473ffffffffffffffffffffffffffffffffffffffff16905090565b60606001805461097690612cb1565b80601f01602080910402602001604051908101604052809291908181526020018280546109a290612cb1565b80156109ef5780601f106109c4576101008083540402835291602001916109ef565b820191906000526020600020905b8154815290600101906020018083116109d257829003601f168201915b5050505050905090565b610a0b610a04610fa8565b8383611474565b5050565b610a20610a1a610fa8565b83611069565b610a5f576040517f08c379a0000000000000000000000000000000000000000000000000000000008152600401610a5690612a39565b60405180910390fd5b610a6b848484846115e1565b50505050565b610a79611ca1565b600860008381526020019081526020016000206040518060800160405290816000820160009054906101000a900460ff1660ff1660ff1681526020016000820160019054906101000a900460ff1660ff1660ff168152602001600182015481526020016002820154815250509050919050565b6060610af782610f3c565b610b36576040517f08c379a0000000000000000000000000000000000000000000000000000000008152600401610b2d906129d9565b60405180910390fd5b6000610b4061163d565b90506000815111610b605760405180602001604052806000815250610b8b565b80610b6a84611654565b604051602001610b7b929190612771565b6040516020818303038152906040525b915050919050565b6000600560008473ffffffffffffffffffffffffffffffffffffffff1673ffffffffffffffffffffffffffffffffffffffff16815260200190815260200160002060008373ffffffffffffffffffffffffffffffffffffffff1673ffffffffffffffffffffffffffffffffffffffff16815260200190815260200160002060009054906101000a900460ff16905092915050565b610c2f610fa8565b73ffffffffffffffffffffffffffffffffffffffff16610c4d61093d565b73ffffffffffffffffffffffffffffffffffffffff1614610ca3576040517f08c379a0000000000000000000000000000000000000000000000000000000008152600401610c9a906129b9565b60405180910390fd5b60405180608001604052808460ff1681526020018360ff1681526020014281526020018281525060086000600754815260200190815260200160002060008201518160000160006101000a81548160ff021916908360ff16021790555060208201518160000160016101000a81548160ff021916908360ff1602179055506040820151816001015560608201518160020155905050610d4433600754611801565b60076000815480929190610d5790612ce3565b9190505550505050565b610d69610fa8565b73ffffffffffffffffffffffffffffffffffffffff16610d8761093d565b73ffffffffffffffffffffffffffffffffffffffff1614610ddd576040517f08c379a0000000000000000000000000000000000000000000000000000000008152600401610dd4906129b9565b60405180910390fd5b600073ffffffffffffffffffffffffffffffffffffffff168173ffffffffffffffffffffffffffffffffffffffff161415610e4d576040517f08c379a0000000000000000000000000000000000000000000000000000000008152600401610e4490612859565b60405180910390fd5b610e56816113ae565b50565b60006008600083815260200190815260200160002090504281600201548260010154610e859190612b33565b11610ec5576040517f08c379a0000000000000000000000000000000000000000000000000000000008152600401610ebc906129f9565b60405180910390fd5b4281600101819055505050565b60007f01ffc9a7000000000000000000000000000000000000000000000000000000007bffffffffffffffffffffffffffffffffffffffffffffffffffffffff1916827bffffffffffffffffffffffffffffffffffffffffffffffffffffffff1916149050919050565b60008073ffffffffffffffffffffffffffffffffffffffff166002600084815260200190815260200160002060009054906101000a900473ffffffffffffffffffffffffffffffffffffffff1673ffffffffffffffffffffffffffffffffffffffff1614159050919050565b600033905090565b816004600083815260200190815260200160002060006101000a81548173ffffffffffffffffffffffffffffffffffffffff021916908373ffffffffffffffffffffffffffffffffffffffff160217905550808273ffffffffffffffffffffffffffffffffffffffff166110238361074b565b73ffffffffffffffffffffffffffffffffffffffff167f8c5be1e5ebec7d5bd14f71427d1e84f3dd0314c0f7b2291e5b200ac8c7c3b92560405160405180910390a45050565b600061107482610f3c565b6110b3576040517f08c379a00000000000000000000000000000000000000000000000000000000081526004016110aa906128f9565b60405180910390fd5b60006110be8361074b565b90508073ffffffffffffffffffffffffffffffffffffffff168473ffffffffffffffffffffffffffffffffffffffff16148061112d57508373ffffffffffffffffffffffffffffffffffffffff166111158461052e565b73ffffffffffffffffffffffffffffffffffffffff16145b8061113e575061113d8185610b93565b5b91505092915050565b8273ffffffffffffffffffffffffffffffffffffffff166111678261074b565b73ffffffffffffffffffffffffffffffffffffffff16146111bd576040517f08c379a00000000000000000000000000000000000000000000000000000000081526004016111b490612879565b60405180910390fd5b600073ffffffffffffffffffffffffffffffffffffffff168273ffffffffffffffffffffffffffffffffffffffff16141561122d576040517f08c379a0000000000000000000000000000000000000000000000000000000008152600401611224906128b9565b60405180910390fd5b61123883838361181f565b611243600082610fb0565b6001600360008573ffffffffffffffffffffffffffffffffffffffff1673ffffffffffffffffffffffffffffffffffffffff16815260200190815260200160002060008282546112939190612bba565b925050819055506001600360008473ffffffffffffffffffffffffffffffffffffffff1673ffffffffffffffffffffffffffffffffffffffff16815260200190815260200160002060008282546112ea9190612b33565b92505081905550816002600083815260200190815260200160002060006101000a81548173ffffffffffffffffffffffffffffffffffffffff021916908373ffffffffffffffffffffffffffffffffffffffff160217905550808273ffffffffffffffffffffffffffffffffffffffff168473ffffffffffffffffffffffffffffffffffffffff167fddf252ad1be2c89b69c2b068fc378daa952ba7f163c4a11628f55a4df523b3ef60405160405180910390a46113a9838383611891565b505050565b6000600660009054906101000a900473ffffffffffffffffffffffffffffffffffffffff16905081600660006101000a81548173ffffffffffffffffffffffffffffffffffffffff021916908373ffffffffffffffffffffffffffffffffffffffff1602179055508173ffffffffffffffffffffffffffffffffffffffff168173ffffffffffffffffffffffffffffffffffffffff167f8be0079c531659141344cd1fd0a4f28419497f9722a3daafe3b4186f6b6457e060405160405180910390a35050565b8173ffffffffffffffffffffffffffffffffffffffff168373ffffffffffffffffffffffffffffffffffffffff1614156114e3576040517f08c379a00000000000000000000000000000000000000000000000000000000081526004016114da906128d9565b60405180910390fd5b80600560008573ffffffffffffffffffffffffffffffffffffffff1673ffffffffffffffffffffffffffffffffffffffff16815260200190815260200160002060008473ffffffffffffffffffffffffffffffffffffffff1673ffffffffffffffffffffffffffffffffffffffff16815260200190815260200160002060006101000a81548160ff0219169083151502179055508173ffffffffffffffffffffffffffffffffffffffff168373ffffffffffffffffffffffffffffffffffffffff167f17307eab39ab6107e8899845ad3d59bd9653f200f220920489ca2b5937696c31836040516115d491906127fc565b60405180910390a3505050565b6115ec848484611147565b6115f884848484611896565b611637576040517f08c379a000000000000000000000000000000000000000000000000000000000815260040161162e90612839565b60405180910390fd5b50505050565b606060405180602001604052806000815250905090565b6060600082141561169c576040518060400160405280600181526020017f300000000000000000000000000000000000000000000000000000000000000081525090506117fc565b600082905060005b600082146116ce5780806116b790612ce3565b915050600a826116c79190612b89565b91506116a4565b60008167ffffffffffffffff811115611710577f4e487b7100000000000000000000000000000000000000000000000000000000600052604160045260246000fd5b6040519080825280601f01601f1916602001820160405280156117425781602001600182028036833780820191505090505b5090505b600085146117f55760018261175b9190612bba565b9150600a8561176a9190612d2c565b60306117769190612b33565b60f81b8183815181106117b2577f4e487b7100000000000000000000000000000000000000000000000000000000600052603260045260246000fd5b60200101907effffffffffffffffffffffffffffffffffffffffffffffffffffffffffffff1916908160001a905350600a856117ee9190612b89565b9450611746565b8093505050505b919050565b61181b828260405180602001604052806000815250611a2d565b5050565b6000600860008381526020019081526020016000209050428160020154826001015461184b9190612b33565b1161188b576040517f08c379a0000000000000000000000000000000000000000000000000000000008152600401611882906129f9565b60405180910390fd5b50505050565b505050565b60006118b78473ffffffffffffffffffffffffffffffffffffffff16611a88565b15611a20578373ffffffffffffffffffffffffffffffffffffffff1663150b7a026118e0610fa8565b8786866040518563ffffffff1660e01b815260040161190294939291906127b0565b602060405180830381600087803b15801561191c57600080fd5b505af192505050801561194d57506040513d601f19601f8201168201806040525081019061194a9190611f85565b60015b6119d0573d806000811461197d576040519150601f19603f3d011682016040523d82523d6000602084013e611982565b606091505b506000815114156119c8576040517f08c379a00000000000000000000000000000000000000000000000000000000081526004016119bf90612839565b60405180910390fd5b805181602001fd5b63150b7a0260e01b7bffffffffffffffffffffffffffffffffffffffffffffffffffffffff1916817bffffffffffffffffffffffffffffffffffffffffffffffffffffffff191614915050611a25565b600190505b949350505050565b611a378383611ac7565b611a446000848484611896565b611a83576040517f08c379a0000000000000000000000000000000000000000000000000000000008152600401611a7a90612839565b60405180910390fd5b505050565b6000808273ffffffffffffffffffffffffffffffffffffffff16803b806020016040519081016040528181526000908060200190933c51119050919050565b600073ffffffffffffffffffffffffffffffffffffffff168273ffffffffffffffffffffffffffffffffffffffff161415611b37576040517f08c379a0000000000000000000000000000000000000000000000000000000008152600401611b2e90612979565b60405180910390fd5b611b4081610f3c565b15611b80576040517f08c379a0000000000000000000000000000000000000000000000000000000008152600401611b7790612899565b60405180910390fd5b611b8c6000838361181f565b6001600360008473ffffffffffffffffffffffffffffffffffffffff1673ffffffffffffffffffffffffffffffffffffffff1681526020019081526020016000206000828254611bdc9190612b33565b92505081905550816002600083815260200190815260200160002060006101000a81548173ffffffffffffffffffffffffffffffffffffffff021916908373ffffffffffffffffffffffffffffffffffffffff160217905550808273ffffffffffffffffffffffffffffffffffffffff16600073ffffffffffffffffffffffffffffffffffffffff167fddf252ad1be2c89b69c2b068fc378daa952ba7f163c4a11628f55a4df523b3ef60405160405180910390a4611c9d60008383611891565b5050565b6040518060800160405280600060ff168152602001600060ff16815260200160008152602001600081525090565b6000611ce2611cdd84612ac0565b612a8f565b905082815260208101848484011115611cfa57600080fd5b611d05848285612c6f565b509392505050565b600081359050611d1c81612e2a565b92915050565b600081359050611d3181612e41565b92915050565b600081359050611d4681612e58565b92915050565b600081519050611d5b81612e58565b92915050565b600082601f830112611d7257600080fd5b8135611d82848260208601611ccf565b91505092915050565b600081359050611d9a81612e6f565b92915050565b600081359050611daf81612e86565b92915050565b600060208284031215611dc757600080fd5b6000611dd584828501611d0d565b91505092915050565b60008060408385031215611df157600080fd5b6000611dff85828601611d0d565b9250506020611e1085828601611d0d565b9150509250929050565b600080600060608486031215611e2f57600080fd5b6000611e3d86828701611d0d565b9350506020611e4e86828701611d0d565b9250506040611e5f86828701611d8b565b9150509250925092565b60008060008060808587031215611e7f57600080fd5b6000611e8d87828801611d0d565b9450506020611e9e87828801611d0d565b9350506040611eaf87828801611d8b565b925050606085013567ffffffffffffffff811115611ecc57600080fd5b611ed887828801611d61565b91505092959194509250565b60008060408385031215611ef757600080fd5b6000611f0585828601611d0d565b9250506020611f1685828601611d22565b9150509250929050565b60008060408385031215611f3357600080fd5b6000611f4185828601611d0d565b9250506020611f5285828601611d8b565b9150509250929050565b600060208284031215611f6e57600080fd5b6000611f7c84828501611d37565b91505092915050565b600060208284031215611f9757600080fd5b6000611fa584828501611d4c565b91505092915050565b600060208284031215611fc057600080fd5b6000611fce84828501611d8b565b91505092915050565b600080600060608486031215611fec57600080fd5b6000611ffa86828701611da0565b935050602061200b86828701611da0565b925050604061201c86828701611d8b565b9150509250925092565b61202f81612bee565b82525050565b61203e81612c00565b82525050565b600061204f82612af0565b6120598185612b06565b9350612069818560208601612c7e565b61207281612e19565b840191505092915050565b600061208882612afb565b6120928185612b17565b93506120a2818560208601612c7e565b6120ab81612e19565b840191505092915050565b60006120c182612afb565b6120cb8185612b28565b93506120db818560208601612c7e565b80840191505092915050565b60006120f4603283612b17565b91507f4552433732313a207472616e7366657220746f206e6f6e20455243373231526560008301527f63656976657220696d706c656d656e74657200000000000000000000000000006020830152604082019050919050565b600061215a602683612b17565b91507f4f776e61626c653a206e6577206f776e657220697320746865207a65726f206160008301527f64647265737300000000000000000000000000000000000000000000000000006020830152604082019050919050565b60006121c0602583612b17565b91507f4552433732313a207472616e736665722066726f6d20696e636f72726563742060008301527f6f776e65720000000000000000000000000000000000000000000000000000006020830152604082019050919050565b6000612226601c83612b17565b91507f4552433732313a20746f6b656e20616c7265616479206d696e746564000000006000830152602082019050919050565b6000612266602483612b17565b91507f4552433732313a207472616e7366657220746f20746865207a65726f2061646460008301527f72657373000000000000000000000000000000000000000000000000000000006020830152604082019050919050565b60006122cc601983612b17565b91507f4552433732313a20617070726f766520746f2063616c6c6572000000000000006000830152602082019050919050565b600061230c602c83612b17565b91507f4552433732313a206f70657261746f7220717565727920666f72206e6f6e657860008301527f697374656e7420746f6b656e00000000000000000000000000000000000000006020830152604082019050919050565b6000612372603883612b17565b91507f4552433732313a20617070726f76652063616c6c6572206973206e6f74206f7760008301527f6e6572206e6f7220617070726f76656420666f7220616c6c00000000000000006020830152604082019050919050565b60006123d8602a83612b17565b91507f4552433732313a2062616c616e636520717565727920666f7220746865207a6560008301527f726f2061646472657373000000000000000000000000000000000000000000006020830152604082019050919050565b600061243e602983612b17565b91507f4552433732313a206f776e657220717565727920666f72206e6f6e657869737460008301527f656e7420746f6b656e00000000000000000000000000000000000000000000006020830152604082019050919050565b60006124a4602083612b17565b91507f4552433732313a206d696e7420746f20746865207a65726f20616464726573736000830152602082019050919050565b60006124e4602c83612b17565b91507f4552433732313a20617070726f76656420717565727920666f72206e6f6e657860008301527f697374656e7420746f6b656e00000000000000000000000000000000000000006020830152604082019050919050565b600061254a602083612b17565b91507f4f776e61626c653a2063616c6c6572206973206e6f7420746865206f776e65726000830152602082019050919050565b600061258a602f83612b17565b91507f4552433732314d657461646174613a2055524920717565727920666f72206e6f60008301527f6e6578697374656e7420746f6b656e00000000000000000000000000000000006020830152604082019050919050565b60006125f0602083612b17565b91507f416c617320796f75722070657420697320616c726561647920646561642e2e2e6000830152602082019050919050565b6000612630602183612b17565b91507f4552433732313a20617070726f76616c20746f2063757272656e74206f776e6560008301527f72000000000000000000000000000000000000000000000000000000000000006020830152604082019050919050565b6000612696603183612b17565b91507f4552433732313a207472616e736665722063616c6c6572206973206e6f74206f60008301527f776e6572206e6f7220617070726f7665640000000000000000000000000000006020830152604082019050919050565b6080820160008201516127056000850182612762565b5060208201516127186020850182612762565b50604082015161272b6040850182612744565b50606082015161273e6060850182612744565b50505050565b61274d81612c58565b82525050565b61275c81612c58565b82525050565b61276b81612c62565b82525050565b600061277d82856120b6565b915061278982846120b6565b91508190509392505050565b60006020820190506127aa6000830184612026565b92915050565b60006080820190506127c56000830187612026565b6127d26020830186612026565b6127df6040830185612753565b81810360608301526127f18184612044565b905095945050505050565b60006020820190506128116000830184612035565b92915050565b60006020820190508181036000830152612831818461207d565b905092915050565b60006020820190508181036000830152612852816120e7565b9050919050565b600060208201905081810360008301526128728161214d565b9050919050565b60006020820190508181036000830152612892816121b3565b9050919050565b600060208201905081810360008301526128b281612219565b9050919050565b600060208201905081810360008301526128d281612259565b9050919050565b600060208201905081810360008301526128f2816122bf565b9050919050565b60006020820190508181036000830152612912816122ff565b9050919050565b6000602082019050818103600083015261293281612365565b9050919050565b60006020820190508181036000830152612952816123cb565b9050919050565b6000602082019050818103600083015261297281612431565b9050919050565b6000602082019050818103600083015261299281612497565b9050919050565b600060208201905081810360008301526129b2816124d7565b9050919050565b600060208201905081810360008301526129d28161253d565b9050919050565b600060208201905081810360008301526129f28161257d565b9050919050565b60006020820190508181036000830152612a12816125e3565b9050919050565b60006020820190508181036000830152612a3281612623565b9050919050565b60006020820190508181036000830152612a5281612689565b9050919050565b6000608082019050612a6e60008301846126ef565b92915050565b6000602082019050612a896000830184612753565b92915050565b6000604051905081810181811067ffffffffffffffff82111715612ab657612ab5612dea565b5b8060405250919050565b600067ffffffffffffffff821115612adb57612ada612dea565b5b601f19601f8301169050602081019050919050565b600081519050919050565b600081519050919050565b600082825260208201905092915050565b600082825260208201905092915050565b600081905092915050565b6000612b3e82612c58565b9150612b4983612c58565b9250827fffffffffffffffffffffffffffffffffffffffffffffffffffffffffffffffff03821115612b7e57612b7d612d5d565b5b828201905092915050565b6000612b9482612c58565b9150612b9f83612c58565b925082612baf57612bae612d8c565b5b828204905092915050565b6000612bc582612c58565b9150612bd083612c58565b925082821015612be357612be2612d5d565b5b828203905092915050565b6000612bf982612c38565b9050919050565b60008115159050919050565b60007fffffffff0000000000000000000000000000000000000000000000000000000082169050919050565b600073ffffffffffffffffffffffffffffffffffffffff82169050919050565b6000819050919050565b600060ff82169050919050565b82818337600083830152505050565b60005b83811015612c9c578082015181840152602081019050612c81565b83811115612cab576000848401525b50505050565b60006002820490506001821680612cc957607f821691505b60208210811415612cdd57612cdc612dbb565b5b50919050565b6000612cee82612c58565b91507fffffffffffffffffffffffffffffffffffffffffffffffffffffffffffffffff821415612d2157612d20612d5d565b5b600182019050919050565b6000612d3782612c58565b9150612d4283612c58565b925082612d5257612d51612d8c565b5b828206905092915050565b7f4e487b7100000000000000000000000000000000000000000000000000000000600052601160045260246000fd5b7f4e487b7100000000000000000000000000000000000000000000000000000000600052601260045260246000fd5b7f4e487b7100000000000000000000000000000000000000000000000000000000600052602260045260246000fd5b7f4e487b7100000000000000000000000000000000000000000000000000000000600052604160045260246000fd5b6000601f19601f8301169050919050565b612e3381612bee565b8114612e3e57600080fd5b50565b612e4a81612c00565b8114612e5557600080fd5b50565b612e6181612c0c565b8114612e6c57600080fd5b50565b612e7881612c58565b8114612e8357600080fd5b50565b612e8f81612c62565b8114612e9a57600080fd5b5056fea2646970667358221220f35d10efc06059f1fe6933576fdfc7c9c19c25514f7224f8b9c1b354a6b730a364736f6c63430008000033",
  "immutableReferences": {},
  "source": "// SPDX-License-Identifier: MIT\npragma solidity 0.8.0;\n\nimport \"../node_modules/@openzeppelin/contracts/token/ERC721/ERC721.sol\";\nimport \"../node_modules/@openzeppelin/contracts/access/Ownable.sol\";\n\ncontract Token is ERC721, Ownable {\n    struct Pet {\n        uint8 damage; // 0-256\n        uint8 magic;\n        uint256 lastMeal; // when this pet last got feed\n        uint256 endurance; // how log does the pet goes without food\n    }\n\n    uint256 nextId = 0;\n\n    mapping(uint256 => Pet) private _tokenDetails;\n\n    constructor(string memory name, string memory symbol)\n        ERC721(name, symbol)\n    {}\n\n    function getTokenDetails(uint256 tokenId) public view returns (Pet memory) {\n        return _tokenDetails[tokenId];\n    }\n\n    function mint(\n        uint8 damage,\n        uint8 magic,\n        uint256 endurance\n    ) public onlyOwner {\n        _tokenDetails[nextId] = Pet(damage, magic, block.timestamp, endurance);\n        _safeMint(msg.sender, nextId);\n        nextId++;\n    }\n\n    function feed(uint256 tokenId) public {\n        Pet storage pet = _tokenDetails[tokenId];\n        require(\n            pet.lastMeal + pet.endurance > block.timestamp,\n            \"Alas your pet is already dead...\"\n        );\n        pet.lastMeal = block.timestamp;\n    }\n\n    function _beforeTokenTransfer(\n        address from,\n        address to,\n        uint256 tokenId\n    ) internal view override {\n        Pet storage pet = _tokenDetails[tokenId];\n        require(\n            pet.lastMeal + pet.endurance > block.timestamp,\n            \"Alas your pet is already dead...\"\n        );\n    }\n}\n",
  "sourcePath": "/home/min/Projects/moralis-nft-game/contracts/Token.sol",
  "compiler": {
    "name": "solc",
    "version": "0.8.0+commit.c7dfd78e.Emscripten.clang"
  },
  "schemaVersion": "3.4.4",
  "updatedAt": "2022-02-27T13:10:49.545Z",
  "networkType": "ethereum",
  "devdoc": {
    "kind": "dev",
    "methods": {
      "approve(address,uint256)": {
        "details": "See {IERC721-approve}."
      },
      "balanceOf(address)": {
        "details": "See {IERC721-balanceOf}."
      },
      "getApproved(uint256)": {
        "details": "See {IERC721-getApproved}."
      },
      "isApprovedForAll(address,address)": {
        "details": "See {IERC721-isApprovedForAll}."
      },
      "name()": {
        "details": "See {IERC721Metadata-name}."
      },
      "owner()": {
        "details": "Returns the address of the current owner."
      },
      "ownerOf(uint256)": {
        "details": "See {IERC721-ownerOf}."
      },
      "renounceOwnership()": {
        "details": "Leaves the contract without owner. It will not be possible to call `onlyOwner` functions anymore. Can only be called by the current owner. NOTE: Renouncing ownership will leave the contract without an owner, thereby removing any functionality that is only available to the owner."
      },
      "safeTransferFrom(address,address,uint256)": {
        "details": "See {IERC721-safeTransferFrom}."
      },
      "safeTransferFrom(address,address,uint256,bytes)": {
        "details": "See {IERC721-safeTransferFrom}."
      },
      "setApprovalForAll(address,bool)": {
        "details": "See {IERC721-setApprovalForAll}."
      },
      "supportsInterface(bytes4)": {
        "details": "See {IERC165-supportsInterface}."
      },
      "symbol()": {
        "details": "See {IERC721Metadata-symbol}."
      },
      "tokenURI(uint256)": {
        "details": "See {IERC721Metadata-tokenURI}."
      },
      "transferFrom(address,address,uint256)": {
        "details": "See {IERC721-transferFrom}."
      },
      "transferOwnership(address)": {
        "details": "Transfers ownership of the contract to a new account (`newOwner`). Can only be called by the current owner."
      }
    },
    "version": 1
  },
  "userdoc": {
    "kind": "user",
    "methods": {},
    "version": 1
  }
}